:020000040800F2
:10000000D023002071030008DD030008DD03000891
:10001000DD030008DD030008DD0300080000000028
:10002000000000000000000000000000DD030008E8
:10003000DD03000800000000DD030008DD03000808
:10004000DD030008DD030008DD030008DD03000810
:10005000DD030008DD030008DD030008DD03000800
:1000600069070008DD030008DD03000879040008C3
:10007000DD030008DD030008DD030008DD030008E0
:10008000DD030008DD030008DD030008DD030008D0
:10009000DD030008DD030008DD030008DD030008C0
:1000A000DD030008DD030008DD030008DD030008B0
:1000B00059080008DD030008DD030008DD0300081F
:1000C000DD030008DD030008DD030008DD03000890
:1000D000DD030008DD030008DD030008DD03000880
:1000E000DD030008DD030008DD0300080000000058
:1000F0000000000000000000000000000000000000
:1001000000000000000000005FF808F180B500AFBB
:100110004FF48053C4F202034FF48052C4F202023F
:10012000126842F001021A604FF48052C4F20202D7
:100130004FF48053C4F202035B6819464FF000038A
:10014000CFF6FF030B4053604FF48053C4F2020319
:100150004FF48052C4F20202126822F0847222F438
:1001600080321A604FF48053C4F202034FF480527D
:10017000C4F20202126822F480221A604FF4805303
:10018000C4F202034FF48052C4F20202526822F415
:10019000FE025A604FF48053C4F202034FF41F0270
:1001A0009A6000F009F84FF46D43CEF200034FF06F
:1001B00000629A6080BD00BF80B500AF00F002F819
:1001C00080BD00BF80B483B000AF4FF000037B6000
:1001D0004FF000033B604FF48053C4F202034FF42E
:1001E0008052C4F20202126842F480321A604FF464
:1001F0008053C4F202031B6803F400333B607B6846
:1002000003F101037B603B68002B03D17B68B3F5EE
:10021000A06FECD14FF48053C4F202031B6803F4C7
:100220000033002B03D04FF001033B6002E04FF09E
:1002300000033B603B68012B40F094804FF4005377
:10024000C4F202034FF40052C4F20202126842F0F8
:1002500010021A604FF40053C4F202034FF400522C
:10026000C4F20202126822F003021A604FF4005333
:10027000C4F202034FF40052C4F20202126842F0C8
:1002800002021A604FF48053C4F202034FF480520A
:10029000C4F2020252685A604FF48053C4F202035F
:1002A0004FF48052C4F2020252685A604FF48053F5
:1002B000C4F202034FF48052C4F20202526842F4C4
:1002C00080625A604FF48053C4F202034FF48052AC
:1002D000C4F20202526822F47C125A604FF4805336
:1002E000C4F202034FF48052C4F20202526842F494
:1002F000A8125A604FF48053C4F202034FF48052A4
:10030000C4F20202126842F080721A6000BF4FF419
:100310008053C4F202031B6803F00073002BF6D075
:100320004FF48053C4F202034FF48052C4F202022D
:10033000526822F003025A604FF48053C4F2020361
:100340004FF48052C4F20202526842F002025A6034
:1003500000BF4FF48053C4F202035B6803F00C0348
:10036000082BF6D107F10C07BD4680BC704700BFD3
:1003700080B582B000AF45F25063C0F600037B60E9
:1003800040F20003C2F200033B600BE07B681A6896
:100390003B681A603B6803F104033B607B6803F130
:1003A00004037B603A6840F23443C2F200039A428D
:1003B000ECD3084808494FF000028842B8BF40F823
:1003C000042BFADBFFF7A2FE00F0B0FA07F10807F2
:1003D000BD4680BD34040020CC1F002080B400AF97
:1003E000FEE700BF80B483B000AF0346FB714FF45B
:1003F0006143CEF2000397F907204FEA5212F979D0
:1004000001F01F014FF0010000FA01F143F8221042
:1004100007F10C07BD4680BC704700BF80B483B0B5
:1004200000AF03463960FB7197F90730002B10DAF3
:100430004FF46D43CEF20003FA7902F00F02A2F1FD
:1004400004013A68D2B24FEA0212D2B25B181A76AD
:100450000DE04FF46143CEF2000397F907103A68BC
:10046000D2B24FEA0212D2B25B1883F8002307F12E
:100470000C07BD4680BC704780B400AF4FF000034E
:10048000C4F202034FF00002C4F20202526842F0CA
:1004900002025A604FF48063C4F200034FF480629A
:1004A000C4F20002128892B222F0010292B21A80C3
:1004B00040F60C43C2F200031A6842F001021A60CF
:1004C000BD4680BC704700BF90B587B000AFF860F4
:1004D000B9607A604FF00003FB82A4E0FB8A4FEA28
:1004E0008303FA68D3181B689BB24FEA03534FEAA1
:1004F0001353A3F5FE63A3F10C03184602F0E2FECA
:100500000346184602F0E6FA02460B461046194624
:100510004BA3D3E9002302F031FB02460B46104601
:1005200019464FF000024FF0804303F5300302F00C
:100530004FFC02460B461046194602F0B9FD034631
:100540003B61FB8A4FEA8303BA68D4183869424991
:1005500002F00CFF0346184602F0BCFA02460B46B6
:100560001046194638A3D3E9002302F031FC0246B5
:100570000B461046194602F09BFD03462360FB8A9A
:100580004FEA8303FA68D3181B684FEA13439BB200
:100590001BB2A3F5FE63A3F10C03184602F092FE12
:1005A0000346184602F096FA02460B4610461946D4
:1005B00023A3D3E9002302F0E1FA02460B461046DA
:1005C00019464FF000024FF0804303F5300302F06C
:1005D000FFFB02460B461046194602F069FD034632
:1005E0003B61FB8A4FEA83037A68D41838691B4958
:1005F00002F0BCFE0346184602F06CFA02460B46B7
:100600001046194612A3D3E9002302F0E1FB02468B
:100610000B461046194602F04BFD03462360FB8A49
:1006200003F10103FB82FA8A40F2F3139A427FF648
:1006300055AF07F11C07BD4690BD00BFAFF300806A
:100640006666666666660A408FC2F5285C8FF63F6E
:10065000666666666666FA3F0080B0430000484200
:1006600080B584B000AF78603960184BBB604FF044
:100670000003FB811AE0FB894FEA83037A68D318F1
:100680001A68FB894FEA83033968CB181B68104648
:10069000194602F06BFE0346B868194602F05EFD8B
:1006A0000346BB60FB8903F10103FB81FA8940F239
:1006B000F3139A42DFD9B868054902F00BFF0346ED
:1006C000184607F11007BD4680BD00BF00000000BE
:1006D0000000FA4380B584B000AF78601F4BBB6068
:1006E0004FF00003FB811AE0FB894FEA83037A682D
:1006F000D3181A68FB894FEA83037968CB181B6803
:100700001046194602F032FE0346B868194602F058
:1007100025FD0346BB60FB8903F10103FB81FA89D8
:1007200040F2F3139A42DFD9B8680D4902F0D2FEC5
:100730000346184602F0CEF902460B46104619460B
:1007400001F000FF02460B461046194602F0B0FCCD
:100750000346184607F11007BD4680BD00000000A3
:100760000000FA4300000000B0B582B000AF41F2D3
:10077000E873C2F200031B88184602F099F9044698
:100780000D464FF080439B8C9BB21A4640F61043B7
:10079000C2F200031B88D31A184602F089F90246F8
:1007A0000B461046194628A3D3E9002302F010FB9C
:1007B00002460B462046294602F02EF802460B461A
:1007C0001046194602F074FC03467B604FF08043EC
:1007D0009B8C9AB240F61043C2F200031A801C4868
:1007E000796802F077FE03461A4640F60443C2F2E7
:1007F00000031A6041F2E873C2F200034FF00002F6
:100800001A8041F2EA73C2F200034FF001021A703B
:100810004FF48063C4F201034FF48062C4F201021A
:10082000126822F004021A604FF48063C4F20103DC
:100830004FF48062C4F20102526942F004025A612C
:1008400007F10807BD46B0BD0000000000408F4022
:100850000000B443AFF3008080B400AF4FF080439A
:100860004FF08042128A92B222F0010292B21A82B2
:1008700041F2E873C2F200031B8803F101039AB24C
:1008800041F2E873C2F200031A8041F2E873C2F247
:1008900000031B88B3F5347F0CD941F2E873C2F230
:1008A00000034FF000021A8040F60443C2F2000336
:1008B0001D4A1A6041F2EA73C2F200031B78002B52
:1008C0000DD041F2EA73C2F200031B7803F1FF334B
:1008D000DAB241F2EA73C2F200031A7020E04FF478
:1008E0008063C4F201035B6903F00403002B0BD0A7
:1008F0004FF48063C4F201034FF48062C4F201023A
:10090000526942F004025A614FF48063C4F2010359
:100910004FF48062C4F20102126842F004021A60CD
:10092000BD4680BC704700BF0000000090B585B098
:1009300002AF4FF48053C4F202034FF48052C4F26A
:100940000202926942F4C06242F005029A614FF4D9
:100950008053C4F202034FF48052C4F20202D269FF
:1009600042F00302DA614FF48053C4F202034FF401
:100970008052C4F20202526942F001025A6140F60A
:100980000C43C2F200031A686FF300021A604FF4BE
:100990000063C4F201034FF40062C4F20102126862
:1009A00022F0FF021A604FF48053C4F202034FF4A6
:1009B0008052C4F20202526842F440425A604FF43C
:1009C0008053C4F202034FF48052C4F20202526810
:1009D00042F480425A604FF41053C4F201034FF4C2
:1009E0001052C4F20102926842F004029A6000BF01
:1009F0004FF41053C4F201039B6803F00403002B6F
:100A0000F6D04FF42053C4F201034FF42052C4F245
:100A10000102926842F004029A6000BF4FF4205332
:100A2000C4F201039B6803F00403002BF6D04FF4DB
:100A30002053C4F201034FF4C0129A604FF42053C4
:100A4000C4F201034FF001025A634FF41053C4F291
:100A500001034FF48072C0F218029A604FF41053F1
:100A6000C4F201034FF000025A634FF41053C4F272
:100A700001034FF41052C4F20102526842F4C02242
:100A80005A604FF42053C4F201034FF030021A6150
:100A90004FF41053C4F201034FF006021A614FF4F1
:100AA0002053C4F201034FF42052C4F201029268B1
:100AB00042F001029A604FF41053C4F201034FF464
:100AC0001052C4F20102926842F001029A604FF49F
:100AD0008063C4F200034FF48062C4F20002928883
:100AE00092B242F0200292B29A804FF48063C4F234
:100AF00000034FF47A729A854FF48063C4F20003C6
:100B00004FF037021A854FF00803C4F2020342F295
:100B10004C42C4F201029A604FF00803C4F202038F
:100B200041F2F872C2F20002DA604FF00803C4F238
:100B300002034FF4FA725A604FF00803C4F2020342
:100B400042F6A3221A604FF00B004FF00101FFF7AD
:100B500065FC4FF00B00FFF745FC4FF48063C4F2D7
:100B600000034FF48062C4F20002128892B242F095
:100B7000010292B21A804FF40063C4F201034FF4F1
:100B80000062C4F20102126822F470621A604FF42B
:100B90000063C4F201034FF40062C4F20102126860
:100BA00042F400621A604FF40063C4F201034FF490
:100BB0000062C4F20102D26842F00402DA6001F07D
:100BC00027FC4FF00F004FF0140145F22462C0F6ED
:100BD000000200F0CDFC01F09BFB4FF000037B60B6
:100BE00003E07B6803F101037B607A6844F63F33DE
:100BF000C0F24C039A42F4D94FF080434DF6BF2225
:100C00001A854FF080434FF47A729A854FF08043F3
:100C10004FF08042928992B242F0010292B29A81E0
:100C20004FF080434FF08042128892B242F00102AE
:100C300092B21A804FF01C004FF00201FFF7EEFB5A
:100C40004FF01C00FFF7CEFB4FF48063C4F20103AA
:100C50004FF004021A604FF48063C4F201034FF0B6
:100C600004029A604FF008004FF00301FFF7D6FB33
:100C70004FF00800FFF7B6FB4FF44053C4F20003F7
:100C800045F255521A604FF44053C4F200034FF03E
:100C900002025A604FF44053C4F2000340F6FF7260
:100CA0009A604FF44053C4F200034CF6CC421A60F1
:100CB00000E000BF4FF44053C4F200034AF6AA22FA
:100CC0001A6040F60C43C2F200031B7803F00103E4
:100CD000DBB2002BEDD041F2F870C2F2000040F61A
:100CE0001841C2F2000140F23442C2F20002FFF7A2
:100CF000EBFB40F60C43C2F200031A686FF30002EC
:100D00001A604FF48063C4F200034FF48062C4F2AF
:100D10000002128892B242F0010292B21A8040F6AA
:100D20001840C2F20000FFF7D5FC024641F2EC7316
:100D3000C2F200031A6040F23440C2F20000FFF732
:100D4000C9FC024640F60843C2F200031A6040F6AE
:100D50000843C2F200031B684FF001021446184614
:100D6000DFF8981402F0B4FC0346002B02D14FF0D8
:100D700000031C46E3B2002B79D041F2EC73C2F2BF
:100D800000031B681846DFF8781402F0EFFA0346F8
:100D90001A4640F60843C2F200031B681046194683
:100DA00002F0E4FA03461A4640F61443C2F2000386
:100DB0001A6040F61840C2F2000040F23441C2F21C
:100DC0000001FFF74DFC034623F000431846DFF80F
:100DD000301402F0CBFA03461A4641F6C873C2F249
:100DE00000031A6041F6C873C2F200031A6840F6A5
:100DF0001443C2F200031B681046194602F06AFB56
:100E000003461A4641F2F073C2F200031A6040F63C
:100E10000443C2F200031B684FF001021446184657
:100E2000F84902F05FFC0346002B02D14FF00003AB
:100E30001C46E3B2002B32D040F61443C2F200034A
:100E40001C6840F60443C2F200031B681846EE49D2
:100E500002F08CFA03462046194602F03BFB03469B
:100E60001A4641F2F473C2F200031A6017E040F62A
:100E70001443C2F20003E34A1A6041F6C873C2F297
:100E80000003E04A1A6041F2F073C2F20003DF4A45
:100E90001A6041F2F473C2F20003DA4A1A6001F0F8
:100EA0008BFA4FF000004FF0000145F22C62C0F6C3
:100EB000000200F05DFB0346FB7040F60843C2F2FF
:100EC00000031B68184602F017FC03463B80FB78C2
:100ED0009AB23B884FF00101009110464FF000019B
:100EE0001A464FF0020300F03DFA0346FB70FB7810
:100EF00018464FF000014FF02C0200F05DFB034656
:100F0000FB7040F60843C2F200031C683B88184699
:100F100002F0D8F903462046194602F01DF90346AF
:100F20001846BB4902F022FA0346184602F0E4FBD9
:100F300003463B80FB789AB23B884FF0000100915A
:100F400010464FF000011A464FF0010300F00AFA74
:100F50000346FB704FF037004FF0000145F230625E
:100F6000C0F6000200F004FB0346FB70FB789CB265
:100F700040F61443C2F200031B68184602F0BCFBA3
:100F800003469BB24FF00102009220464FF0000151
:100F90001A464FF0050300F0E5F90346FB704FF0E9
:100FA0001E004FF0140145F23462C0F6000200F05A
:100FB000DFFA0346FB7041F2F073C2F200031B68D4
:100FC0001846924902F066FB0346002B0AD0FB78D4
:100FD00018464FF014014FF0310200F0EDFA0346CD
:100FE000FB7032E0FB7818464FF014014FF03002EE
:100FF00000F0E2FA0346FB70FB7818464FF014014C
:101000004FF02C0200F0D8FA0346FB7041F2F07367
:10101000C2F200031B6818467E4902F0A7F9034696
:10102000184602F069FB03463B80FB789AB23B8886
:101030004FF00001009110464FF014011A464FF096
:10104000020300F08FF90346FB704FF000004FF0F1
:10105000280145F23C62C0F6000200F089FA03461E
:10106000FB70FB789CB240F60443C2F200031B689D
:10107000184602F041FB03469BB24FF0010200927A
:1010800020464FF028011A464FF0030300F06AF99A
:101090000346FB704FF037004FF0280145F24062E5
:1010A000C0F6000200F064FA0346FB7041F2F473EC
:1010B000C2F200031B684FF001021446184654495F
:1010C00002F010FB0346002B02D14FF000031C4638
:1010D000E3B2002B19D0FB789CB241F2F473C2F258
:1010E00000031B68184602F007FB03469BB24FF053
:1010F0000102009220464FF028011A464FF00303E8
:1011000000F030F90346FB704CE041F2F473C2F298
:1011100000031B68184602F0EFFA03463B80FB7899
:101120009AB23B884FF00101009110464FF0280120
:101130001A464FF0010300F015F90346FB70FB78E7
:1011400018464FF028014FF02C0200F035FA034604
:10115000FB7041F2F473C2F200031C683B8818462E
:1011600002F0B0F803462046194601F0F5FF0346A9
:101170001846284902F0FAF80346184602F0BCFA6D
:1011800003463B80FB789AB23B884FF00001009108
:1011900010464FF028011A464FF0020300F0E2F823
:1011A0000346FB704FF000004FF016014FF07F0236
:1011B0004FF0160300F030F84FF000004FF02A0116
:1011C0004FF07F024FF02A0300F026F84FF0350071
:1011D0004FF000014FF035024FF0160300F01CF8FD
:1011E0004FF035004FF02A014FF035024FF03F032A
:1011F00000F012F801F08CF85BE500BF0000003F42
:10120000000040400000000000007A440000803FE1
:10121000000020410000C84290B48AB000AFF871CD
:10122000B9717A713B714FF00003FB844FF00003FA
:10123000BB847A79FB79D31A3B613A79BB79D31AAB
:10124000FB603B69002B03DD4FF00103BB6109E04C
:101250003B69002B03D14FF00003BB6102E04FF06C
:10126000FF33BB61FB68002B03DD4FF001037B61A3
:1012700009E0FB68002B03D14FF000037B6102E023
:101280004FF0FF337B613B69002BB8BF5B423B6192
:10129000FB68002BB8BF5B42FB60FA683B699A426F
:1012A000A8BF13467B81FB797B84BB793B844FF0DD
:1012B0000003FB834DE03B699AB2FB8CD318FB849F
:1012C000FB689AB2BB8CD318BB84FA8C7B899A4298
:1012D00008D9FA8C7B89D31AFB84BB699AB27B8CC0
:1012E000D3187B84BA8C7B899A4208D9BA8C7B89C3
:1012F000D31ABB847B699AB23B8CD3183B843B8C5A
:101300004FEAD3039BB21846798C1C467A8C41F283
:10131000E833C2F200034FEAC414A2189B181B78EA
:10132000DAB23B8C03F007034FF0010404FA03F335
:10133000DBB21343DBB2DAB241F2E833C2F20003AC
:101340004FEAC01041185B181A70FB8B03F10103C0
:10135000FB83FA8B7B899A42ADD307F12807BD4600
:1013600090BC704780B584B000AFF880B9807A80B7
:101370007B704FF03003FB734FF03003BB734FF0C3
:1013800030037B734FF030033B734FF03003FB723D
:101390007B78042B0FD909E07B88A3F51C53A3F1BC
:1013A00010037B80FB7B03F10103FB737A8842F21D
:1013B0000F739A42F0D87B78032B0DD907E07B8816
:1013C000A3F57A737B80BB7B03F10103BB737A883F
:1013D00040F2E7339A42F2D87B78022B0BD907E030
:1013E0007B88A3F164037B807B7B03F101037B7328
:1013F0007B88632BF4D87B78012B14D907E07B889A
:10140000A3F10A037B803B7B03F101033B737B88E1
:10141000092BF4D807E07B8803F1FF337B80FB7A4C
:1014200003F10103FB727B88002BF4D13B7E002B80
:101430004ED0FB7B302B0BD9FB88D9B2BB88DAB2FC
:10144000FB7B084611461A4600F0B6F80346FB80BF
:10145000FB7B302B02D8BB7B302B0BD9FB88D9B25E
:10146000BB88DAB2BB7B084611461A4600F0A4F8E6
:101470000346FB80FB7B302B05D8BB7B302B02D88F
:101480007B7B302B0BD9FB88D9B2BB88DAB27B7B54
:10149000084611461A4600F08FF80346FB80FB7B96
:1014A000302B08D8BB7B302B05D87B7B302B02D868
:1014B0003B7B302B48D9FB88D9B2BB88DAB23B7B67
:1014C000084611461A4600F077F80346FB803BE0D9
:1014D0007B78042B0BD9FB88D9B2BB88DAB2FB7BB3
:1014E000084611461A4600F067F80346FB807B78F1
:1014F000032B0BD9FB88D9B2BB88DAB2BB7B084679
:1015000011461A4600F058F80346FB807B78022B00
:101510000BD9FB88D9B2BB88DAB27B7B084611466F
:101520001A4600F049F80346FB807B78012B0BD963
:10153000FB88D9B2BB88DAB23B7B084611461A4613
:1015400000F03AF80346FB80FB88D9B2BB88DAB2D8
:10155000FB7A084611461A4600F02EF80346FB8037
:10156000FB88DBB2184607F11007BD4680BD00BFFF
:1015700080B584B000AF0B463A600246FA71BB7189
:1015800010E03B681B78FB733B6803F101033B6091
:10159000F979BA79FB7B084611461A4600F00CF837
:1015A0000346FB713B681B78002BEAD1FB79184698
:1015B00007F11007BD4680BDB0B485B000AF13463B
:1015C0000246FA710A46BA717B717B79A3F1200356
:1015D0007B7140F20003C2F200031B685A687B79FA
:1015E0004FEA8303D3181B88082B00F2B2804FF018
:1015F0000003FB73A2E04FF00003BB738AE040F2EC
:101600000003C2F200031B689A6840F20003C2F2B2
:1016100000031B6859687B794FEA8303CB185B880A
:101620001946FB7BCB18D3181B781A46BB7BC3F13A
:10163000070342FA03F303F00103DBB2002B31D0BE
:10164000BA79FB7BD318002B01DA03F107034FEAC9
:10165000E3031A46F979BB7BC818F979BB7BC91833
:1016600041F2E833C2F200034FEAC21461185B187A
:101670001B78D9B2BC79FB7BE31803F007034FF06A
:10168000010404FA03F3DBB20B43DBB2D9B241F23B
:10169000E833C2F200034FEAC21212189B180A463E
:1016A0001A7033E0BA79FB7BD318002B01DA03F10F
:1016B00007034FEAE3031A46F979BB7BC818F979A7
:1016C000BB7BC91841F2E833C2F200034FEAC214EF
:1016D00061185B181B78D9B2BC79FB7BE31803F067
:1016E00007034FF0010404FA03F3DBB26FEA0303CC
:1016F000DBB20B40DBB2D9B241F2E833C2F20003F5
:101700004FEAC21212189B180A461A70BB7B03F1EB
:101710000103BB73BB7B9AB240F20003C2F2000329
:101720001B6859687B794FEA8303CB181B889A4260
:10173000FFF465AFFB7B03F10103FB7340F2000391
:10174000C2F200031B681B78FA7B9A42FFF453AF86
:10175000B4E340F20003C2F200031B685A687B79CD
:101760004FEA8303D3181B88102B00F259814FF0E6
:101770000003FB7347E14FF00003BB732FE1BB7B1A
:10178000072B00F2948040F20003C2F200031B68B2
:101790009A6840F20003C2F200031B6859687B7923
:1017A0004FEA8303CB185B881946FB7BCB18D31811
:1017B0001B781A46BB7BC3F1070342FA03F303F01D
:1017C0000103DBB2002B37D0BA79FB7B4FEA53031E
:1017D000DBB2D318002B01DA03F107034FEAE3036E
:1017E0001A46F979BB7BC818F979BB7BC91841F255
:1017F000E833C2F200034FEAC21461185B181B7889
:10180000D9B2BC79FB7B4FEA5303DBB2E31803F098
:1018100007034FF0010404FA03F3DBB20B43DBB21E
:10182000D9B241F2E833C2F200034FEAC2121218F1
:101830009B180A461A70CEE0BA79FB7B4FEA530335
:10184000DBB2D318002B01DA03F107034FEAE303FD
:101850001A46F979BB7BC818F979BB7BC91841F2E4
:10186000E833C2F200034FEAC21461185B181B7818
:10187000D9B2BC79FB7B4FEA5303DBB2E31803F028
:1018800007034FF0010404FA03F3DBB26FEA03032A
:10189000DBB20B40DBB2D9B241F2E833C2F2000353
:1018A0004FEAC21212189B180A461A7093E040F2CF
:1018B0000003C2F200031B689A6840F20003C2F200
:1018C00000031B6859687B794FEA8303CB185B8858
:1018D00003F10101FB7BCB18D3181B781A46BB7BA5
:1018E000C3F10F0342FA03F303F00103DBB2002B51
:1018F00037D0BA79FB7B4FEA5303DBB2D318002B06
:1019000001DA03F107034FEAE3031A46F979BB7BD7
:10191000C818F979BB7BC91841F2E833C2F2000359
:101920004FEAC21461185B181B78D9B2BC79FB7BF3
:101930004FEA5303DBB2E31803F007034FF001044F
:1019400004FA03F3DBB20B43DBB2D9B241F2E83362
:10195000C2F200034FEAC21212189B180A461A700C
:1019600039E0BA79FB7B4FEA5303DBB2D318002B83
:1019700001DA03F107034FEAE3031A46F979BB7B67
:10198000C818F979BB7BC91841F2E833C2F20003E9
:101990004FEAC21461185B181B78D9B2BC79FB7B83
:1019A0004FEA5303DBB2E31803F007034FF00104DF
:1019B00004FA03F3DBB26FEA0303DBB20B40DBB2E2
:1019C000D9B241F2E833C2F200034FEAC212121850
:1019D0009B180A461A70BB7B03F10103BB73BB7BE8
:1019E0009AB240F20003C2F200031B6859687B7987
:1019F0004FEA8303CB181B889A42FFF4C0AEFB7BEF
:101A000003F10203FB73FA7B40F20003C2F200030E
:101A10001B681B784FEA43039A42FFF6ACAE4DE2D7
:101A200040F20003C2F200031B685A687B794FEA58
:101A30008303D3181B88182B00F240824FF0000359
:101A4000FB732CE24FF00003BB7314E2BB7B072B4C
:101A500000F2AC8040F20003C2F200031B689A68F7
:101A600040F20003C2F200031B6859687B794FEA19
:101A70008303CB185B881946FB7BCB18D3181B78E4
:101A80001A46BB7BC3F1070342FA03F303F00103D9
:101A9000DBB2002B43D0BA79F97B4AF6AB23CAF606
:101AA000AA23A3FB01034FEA5303DBB2D318002B95
:101AB00001DA03F107034FEAE3031A46F979BB7B26
:101AC000C818F979BB7BC91841F2E833C2F20003A8
:101AD0004FEAC21461185B181B78D9B2BC79FD7B40
:101AE0004AF6AB23CAF6AA23A3FB05C34FEA530366
:101AF000DBB2E31803F007034FF0010404FA03F329
:101B0000DBB20B43DBB2D9B241F2E833C2F20003DD
:101B10004FEAC21212189B180A461A70A7E1BA7946
:101B2000F97B4AF6AB23CAF6AA23A3FB01034FEACB
:101B30005303DBB2D318002B01DA03F107034FEA9A
:101B4000E3031A46F979BB7BC818F979BB7BC9183E
:101B500041F2E833C2F200034FEAC21461185B1885
:101B60001B78D9B2BC79FD7B4AF6AB23CAF6AA230F
:101B7000A3FB05C34FEA5303DBB2E31803F00703EB
:101B80004FF0010404FA03F3DBB26FEA0303DBB2A4
:101B90000B40DBB2D9B241F2E833C2F200034FEAA4
:101BA000C21212189B180A461A7060E1BB7B0F2BF9
:101BB00000F2AD8040F20003C2F200031B689A6895
:101BC00040F20003C2F200031B6859687B794FEAB8
:101BD0008303CB185B8803F10101FB7BCB18D3187F
:101BE0001B781A46BB7BC3F10F0342FA03F303F0E1
:101BF0000103DBB2002B43D0BA79F97B4AF6AB2361
:101C0000CAF6AA23A3FB01034FEA5303DBB2D3189E
:101C1000002B01DA03F107034FEAE3031A46F979CF
:101C2000BB7BC818F979BB7BC91841F2E833C2F213
:101C300000034FEAC21461185B181B78D9B2BC7953
:101C4000FD7B4AF6AB23CAF6AA23A3FB05C34FEAE2
:101C50005303DBB2E31803F007034FF0010404FA67
:101C600003F3DBB20B43DBB2D9B241F2E833C2F289
:101C700000034FEAC21212189B180A461A70F6E0C7
:101C8000BA79F97B4AF6AB23CAF6AA23A3FB010370
:101C90004FEA5303DBB2D318002B01DA03F1070339
:101CA0004FEAE3031A46F979BB7BC818F979BB7B85
:101CB000C91841F2E833C2F200034FEAC2146118B6
:101CC0005B181B78D9B2BC79FD7B4AF6AB23CAF608
:101CD000AA23A3FB05C34FEA5303DBB2E31803F0C7
:101CE00007034FF0010404FA03F3DBB26FEA0303C6
:101CF000DBB20B40DBB2D9B241F2E833C2F20003EF
:101D00004FEAC21212189B180A461A70AFE0BB7B4A
:101D1000172B00F2AC8040F20003C2F200031B68F4
:101D20009A6840F20003C2F200031B6859687B798D
:101D30004FEA8303CB185B8803F10201FB7BCB18CE
:101D4000D3181B781A46BB7BC3F1170342FA03F37F
:101D500003F00103DBB2002B43D0BA79F97B4AF6DA
:101D6000AB23CAF6AA23A3FB01034FEA5303DBB25A
:101D7000D318002B01DA03F107034FEAE3031A46F5
:101D8000F979BB7BC818F979BB7BC91841F2E833F4
:101D9000C2F200034FEAC21461185B181B78D9B273
:101DA000BC79FD7B4AF6AB23CAF6AA23A3FB05C385
:101DB0004FEA5303DBB2E31803F007034FF00104CB
:101DC00004FA03F3DBB20B43DBB2D9B241F2E833DE
:101DD000C2F200034FEAC21212189B180A461A7088
:101DE00045E0BA79F97B4AF6AB23CAF6AA23A3FBEE
:101DF00001034FEA5303DBB2D318002B01DA03F1DE
:101E000007034FEAE3031A46F979BB7BC818F9794F
:101E1000BB7BC91841F2E833C2F200034FEAC21497
:101E200061185B181B78D9B2BC79FD7B4AF6AB23ED
:101E3000CAF6AA23A3FB05C34FEA5303DBB2E31898
:101E400003F007034FF0010404FA03F3DBB26FEA77
:101E50000303DBB20B40DBB2D9B241F2E833C2F28A
:101E600000034FEAC21212189B180A461A70BB7B75
:101E700003F10103BB73BB7B9AB240F20003C2F2D1
:101E800000031B6859687B794FEA8303CB181B88D2
:101E90009A42FFF4DBADFB7B03F10303FB73F97B99
:101EA00040F20003C2F200031B681B781A46134677
:101EB0004FEA43039B189942FFF6C4AD40F200037A
:101EC000C2F200031B685A687B794FEA8303D31878
:101ED0001B88DAB2FB79D318DAB240F20003C2F2FF
:101EE00000031B68DB78D318DBB2184607F1140730
:101EF000BD46B0BC704700BF80B485B000AF02469D
:101F00000B46FA71BB714FF40063C4F201034FF446
:101F100000221A61BB7903F00103DBB2002B07D06A
:101F20004FF44063C4F201034FF480521A6106E09B
:101F30004FF44063C4F201034FF080521A61BB7941
:101F400003F00203002B07D04FF44063C4F20103F7
:101F50004FF400521A6106E04FF44063C4F20103EB
:101F60004FF000521A61FB7903F00103DBB2002B42
:101F700007D04FF40063C4F201034FF020021A614E
:101F800006E04FF40063C4F201034FF400121A613B
:101F9000FB7903F00203002B07D04FF40063C4F277
:101FA00001034FF040021A6106E04FF40063C4F2EF
:101FB00001034FF480021A61FB7903F00403002B44
:101FC00007D04FF40063C4F201034FF080021A619E
:101FD00006E04FF40063C4F201034FF400021A61FB
:101FE000FB7903F00803002B07D04FF44063C4F2E1
:101FF00001034FF001021A6106E04FF44063C4F29E
:1020000001034FF480321A61FB7903F01003002BB7
:1020100007D04FF44063C4F201034FF002021A618B
:1020200006E04FF44063C4F201034FF400321A613A
:10203000FB7903F02003002B07D04FF44063C4F278
:1020400001034FF004021A6106E04FF44063C4F24A
:1020500001034FF480221A61FB7903F04003002B47
:1020600007D04FF44063C4F201034FF480621A6159
:1020700006E04FF44063C4F201034FF080621A613E
:10208000FB795BB2002B07DA4FF44063C4F2010323
:102090004FF400621A6106E04FF44063C4F201039A
:1020A0004FF000621A614FF40063C4F201034FF075
:1020B00010021A614FF00003FB8103E0FB8903F17A
:1020C0000103FB81FA8940F2E7339A42F6D94FF4D3
:1020D0000063C4F201034FF480121A614FF44063AD
:1020E000C4F201034FF080521A614FF44063C4F20E
:1020F00001034FF000521A6107F11407BD4680BC7E
:10210000704700BF80B485B000AF02460B46FA713D
:10211000BB714FF40063C4F201034FF008021A616F
:10212000BB7903F00103DBB2002B07D04FF440630F
:10213000C4F201034FF480521A6106E04FF4406389
:10214000C4F201034FF080521A61BB7903F002031D
:10215000002B07D04FF44063C4F201034FF4005248
:102160001A6106E04FF44063C4F201034FF00052DD
:102170001A61FB7903F00103DBB2002B07D04FF4A7
:102180000063C4F201034FF020021A6106E04FF42D
:102190000063C4F201034FF400121A61FB7903F0EB
:1021A0000203002B07D04FF40063C4F201034FF089
:1021B00040021A6106E04FF40063C4F201034FF4D9
:1021C00080021A61FB7903F00403002B07D04FF45F
:1021D0000063C4F201034FF080021A6106E04FF47D
:1021E0000063C4F201034FF400021A61FB7903F0AB
:1021F0000803002B07D04FF44063C4F201034FF0F3
:1022000001021A6106E04FF44063C4F201034FF487
:1022100080321A61FB7903F01003002B07D04FF4D2
:102220004063C4F201034FF002021A6106E04FF46A
:102230004063C4F201034FF400321A61FB7903F0EA
:102240002003002B07D04FF44063C4F201034FF08A
:1022500004021A6106E04FF44063C4F201034FF434
:1022600080221A61FB7903F04003002B07D04FF462
:102270004063C4F201034FF480621A6106E04FF438
:102280004063C4F201034FF080621A61FB795BB2D4
:10229000002B07DA4FF44063C4F201034FF40062ED
:1022A0001A6106E04FF44063C4F201034FF000628C
:1022B0001A614FF40063C4F201034FF010021A6177
:1022C0004FF00003FB8103E0FB8903F10103FB8175
:1022D000FA8940F2E7339A42F6D94FF40063C4F228
:1022E00001034FF480121A614FF44063C4F20103FA
:1022F0004FF080521A614FF44063C4F201034FF073
:1023000000521A6107F11407BD4680BC704700BF38
:1023100080B582B000AF4FF040004FF00301FFF7EF
:10232000EBFD4FF0B8004FF00301FFF7E5FD4FF074
:102330000003FB7139E0FB79A3F14803DBB21846D7
:102340004FF00301FFF7D8FD4FF00003BB7125E00C
:10235000F979BA7941F2E833C2F200034FEAC111C8
:102360008A189B181B7818464FF00101FFF7CAFE28
:10237000F979BB7903F1400241F2E833C2F200037C
:102380004FEAC1118A189B181B7818464FF00201BA
:10239000FFF7B8FEBB7903F10103BB71BB793F2B9B
:1023A000D6D9FB7903F10103FB71FB79072BC2D965
:1023B00007F10807BD4680BD80B483B000AF4FF081
:1023C0000003FB711CE04FF00003BB7110E0F979D2
:1023D000BA7941F2E833C2F200034FEAC1118A1818
:1023E0009B184FF000021A70BB7903F10103BB7117
:1023F000BB795BB2002BEADAFB7903F10103FB71D5
:10240000FB79072BDFD907F10C07BD4680BC70476D
:1024100080B582B000AF4FF48053C4F202034FF492
:102420008052C4F20202926942F00C029A614FF4A7
:102430000062C4F201024FF40063C4F201031B689E
:10244000194643F6FF73C3F233330B4013604FF466
:102450000062C4F201024FF40063C4F201031B687E
:1024600019464FF44053C3F233330B4313604FF418
:102470004063C4F201034FF44062C4F201021268E7
:1024800022F44C6222F00C021A604FF44062C4F253
:1024900001024FF44063C4F201035B68194643F242
:1024A000FF33CFF233330B4053604FF44063C4F239
:1024B00001034FF44062C4F20102126842F44C720C
:1024C00042F003021A604FF44062C4F201024FF47A
:1024D0004063C4F201035B6819464FF44C53C0F2E9
:1024E00033330B4353604FF44063C4F201034FF0A6
:1024F00080421A614FF00003FB8003E0FB8803F188
:102500000103FB80FA884FF6E7539A42F6D94FF45D
:102510004063C4F201034FF480421A614FF03F0060
:102520004FF00301FFF7E8FC4FF0C0004FF003014C
:10253000FFF7E2FCFFF740FFFFF7EAFE07F10807AD
:10254000BD4680BD2DE9D04F8AB006460F4600F04B
:102550004DF8244C804694F90030894601332ED042
:102560003046394600F01CF9002828D04FF0000A08
:102570004FF0000B3046394652465B4600F070FD86
:10258000E8B101230093184B2478019300230893AA
:10259000CDE90467CDE90267B4B1504659465246C9
:1025A0005B4600F015FC022CCDE906010ED101F0CE
:1025B000C3F821230360089B73B9DDE9068940460F
:1025C00049460AB0BDE8D08FCDE906AB684600F0B9
:1025D0001BF90028EFD1EAE701F0AEF8089B036091
:1025E000EBE700BF04000020445600082DE9F84343
:1025F00000263746C7F6F076C7F6F0770E40BE42A3
:1026000004460D4602460B4600F0A580002979DD00
:102610000A1500F08380A2F57E7721F07F4323F432
:102620007003073FD20743F4801360D5C20F4FF009
:10263000000C02EB43037F104200654616204FF466
:1026400000116C18D60F9C424FEA420202DC65185A
:102650001B1B8C444908013806EB4303F1D12026AB
:1026600080464FF0004107E03DD0D40F49085200AA
:10267000013E04EB43031BD0AB4208EB0104F3DD46
:1026800004F00049B9F1004F04EB010825D0A94638
:102690009442C5EB0303C4EB020288BF013B401820
:1026A000D40F49085200013E4D4604EB4303E3D1E9
:1026B0001A4321D146084FEA6C0303F17E531CF004
:1026C000010F03F5C00318BF46F0004603EB0755A2
:1026D000344620462946BDE8F883B8F1000FD6DB22
:1026E00005F10109D4E79442CAD91D46BDE7C20FDE
:1026F00002EB4303400099E7431C3CD000F0010388
:102700001818D7E721F000460643E2D0002939D156
:102710002A46C10A153A40050029FAD011F480135F
:102720002CD149000133CC02FBD5C3F10105C3F123
:10273000200420FA04F4521921439840A2F57E7730
:1027400021F07F4323F47003073FD20743F4801343
:102750003FF56CAFCBE72046294600F00FFA024662
:102760000B462046294600F057F804460D46204601
:102770002946BDE8F8830CF1010C9CE720240125D3
:102780000023D6E722462B462046294600F042F891
:1027900002460B4600F01CFB04460D4699E700BFBD
:1027A0000B4661B1B1F1004F09D04FF6FF72A3F5AE
:1027B0008011C7F6DF72914205D8042070470028C7
:1027C000F3D10220704703F1FE4101F570019142FF
:1027D000F3D94FF6FF72C0F20F02934201D80320E3
:1027E000704703F100419142F9D90022C7F6F07217
:1027F000934204D013F5801F01D000207047D0F120
:10280000010038BF002070470020704781F0004170
:1028100002E000BF83F0004330B54FEA41044FEAC5
:10282000430594EA050F08BF90EA020F1FBF54EA60
:10283000000C55EA020C7FEA645C7FEA655C00F0FC
:10284000E2804FEA5454D4EB5555B8BF6D420CDDCD
:102850002C4480EA020281EA030382EA000083EA50
:10286000010180EA020281EA0303362D88BF30BDF0
:1028700011F0004F4FEA01314FF4801C4CEA113146
:1028800002D0404261EB410113F0004F4FEA0333A5
:102890004CEA133302D0524263EB430394EA050F30
:1028A00000F0A780A4F10104D5F1200E0DDB02FA9F
:1028B0000EFC22FA05F2801841F1000103FA0EF233
:1028C000801843FA05F359410EE0A5F120050EF1F9
:1028D000200E012A03FA0EFC28BF4CF0020C43FA2A
:1028E00005F3C01851EBE37101F0004507D54FF037
:1028F000000EDCF1000C7EEB00006EEB0101B1F587
:10290000801F1BD3B1F5001F0CD349085FEA3000CC
:102910004FEA3C0C04F101044FEA445212F5800FD7
:1029200080F09A80BCF1004F08BF5FEA500C50F174
:10293000000041EB045141EA050130BD5FEA4C0C57
:10294000404141EB010111F4801FA4F10104E9D1E0
:1029500091F0000F04BF01460020B1FA81F308BFD7
:102960002033A3F10B03B3F120020CDA0C3208DDA3
:1029700002F1140CC2F10C0201FA0CF021FA02F17E
:102980000CE002F11402D8BFC2F1200C01FA02F1EE
:1029900020FA0CFCDCBF41EA0C019040E41AA2BF13
:1029A00001EB0451294330BD6FEA04041F3C1CDADB
:1029B0000C340EDC04F11404C4F1200220FA04F0FB
:1029C00001FA02F340EA030021FA04F345EA0301A5
:1029D00030BDC4F10C04C4F1200220FA02F001FA67
:1029E00004F340EA0300294630BD21FA04F02946E9
:1029F00030BD94F0000F83F4801306BF81F4801182
:102A00000134013D4EE77FEA645C18BF7FEA655CF4
:102A100029D094EA050F08BF90EA020F05D054EAC6
:102A2000000C04BF1946104630BD91EA030F1EBFCB
:102A30000021002030BD5FEA545C05D140004941CF
:102A400028BF41F0004130BD14F580043CBF01F5C2
:102A5000801130BD01F0004545F0FE4141F47001A8
:102A60004FF0000030BD7FEA645C1ABF1946104683
:102A70007FEA655C1CBF0B46024650EA013406BF84
:102A800052EA033591EA030F41F4002130BD00BF43
:102A900090F0000F04BF0021704730B54FF4806400
:102AA00004F132044FF000054FF0000150E700BF81
:102AB00090F0000F04BF0021704730B54FF48064E0
:102AC00004F1320410F0004548BF40424FF00001CD
:102AD0003EE700BF42004FEAE2014FEA31014FEA10
:102AE00002701FBF12F07F4393F07F4F81F060515F
:102AF000704792F0000F14BF93F07F4F704730B5CE
:102B00004FF4607401F0004521F0004120E700BF60
:102B100050EA010208BF704730B54FF000050AE0E7
:102B200050EA010208BF704730B511F0004502D5E8
:102B3000404261EB41014FF4806404F132045FEAEA
:102B4000915C3FF4DCAE4FF003025FEADC0C18BF8F
:102B500003325FEADC0C18BF033202EBDC02C2F185
:102B6000200300FA03FC20FA02F001FA03FE40EA17
:102B70000E0021FA02F11444C1E600BF70B54FF017
:102B8000FF0C4CF4E06C1CEA11541DBF1CEA1355F9
:102B900094EA0C0F95EA0C0F00F0DEF82C4481EA61
:102BA000030621EA4C5123EA4C5350EA013518BF81
:102BB00052EA033541F4801143F4801338D0A0FB6E
:102BC00002CE4FF00005E1FB02E506F00042E0FB1B
:102BD00003E54FF00006E1FB03569CF0000F18BF21
:102BE0004EF0010EA4F1FF04B6F5007F64F54074C9
:102BF00004D25FEA4E0E6D4146EB060642EAC6215C
:102C000041EA55514FEAC52040EA5E504FEACE2EC8
:102C1000B4F1FD0C88BFBCF5E06F1ED8BEF1004FCB
:102C200008BF5FEA500E50F1000041EB045170BD47
:102C300006F0004646EA010140EA020081EA03018B
:102C4000B4EB5C04C2BFD4EB0C0541EA045170BD87
:102C500041F480114FF0000E013C00F3AB8014F101
:102C6000360FDEBF002001F0004170BDC4F100044A
:102C7000203C35DA0C341BDC04F11404C4F12005CB
:102C800000FA05F320FA04F001FA05F240EA020026
:102C900001F0004221F0004110EBD37021FA04F65C
:102CA00042EB06015EEA430E08BF20EAD37070BD16
:102CB000C4F10C04C4F1200500FA04F320FA05F075
:102CC00001FA04F240EA020001F0004110EBD37077
:102CD00041F100015EEA430E08BF20EAD37070BDE7
:102CE000C4F1200500FA05F24EEA020E20FA04F3C0
:102CF00001FA05F243EA020321FA04F001F000416F
:102D000021FA04F220EA020000EBD3705EEA430EDF
:102D100008BF20EAD37070BD94F0000F0FD101F00E
:102D20000046400041EB010111F4801F08BF013C47
:102D3000F7D041EA060195F0000F18BF704703F085
:102D40000046520043EB030313F4801F08BF013D0C
:102D5000F7D043EA0603704794EA0C0F0CEA1355C8
:102D600018BF95EA0C0F0CD050EA410618BF52EA82
:102D70004306D1D181EA030101F000414FF0000088
:102D800070BD50EA410606BF1046194652EA430696
:102D900019D094EA0C0F02D150EA013613D195EA0A
:102DA0000C0F05D152EA03361CBF104619460AD152
:102DB00081EA030101F0004141F0FE4141F470015C
:102DC0004FF0000070BD41F0FE4141F4780170BD4C
:102DD00070B54FF0FF0C4CF4E06C1CEA11541DBFB1
:102DE0001CEA135594EA0C0F95EA0C0F00F0A7F8B3
:102DF000A4EB050481EA030E52EA03354FEA0131E0
:102E000000F088804FEA03334FF0805545EA1313F2
:102E100043EA12634FEA022245EA111545EA1065BA
:102E20004FEA00260EF000419D4208BF964244F151
:102E3000FD0404F5407402D25B084FEA3202B61A70
:102E400065EB03055B084FEA32024FF480104FF444
:102E5000002CB6EB020E75EB030E22BFB61A7546B8
:102E600040EA0C005B084FEA3202B6EB020E75EB4B
:102E7000030E22BFB61A754640EA5C005B084FEAB3
:102E80003202B6EB020E75EB030E22BFB61A754680
:102E900040EA9C005B084FEA3202B6EB020E75EB8B
:102EA000030E22BFB61A754640EADC0055EA060E4C
:102EB00018D04FEA051545EA16754FEA06164FEA8F
:102EC000C30343EA52734FEAC2025FEA1C1CC0D13B
:102ED00011F4801F0BD141EA00014FF000004FF0C8
:102EE000004CB6E711F4801F04BF01430020B4F189
:102EF000FD0C88BFBCF5E06F3FF6AFAEB5EB030C41
:102F000004BFB6EB020C5FEA500C50F1000041EB3D
:102F1000045170BD0EF0004E4EEA113114EB5C040A
:102F2000C2BFD4EB0C0541EA045170BD41F48011DD
:102F30004FF0000E013C90E645EA060E8DE60CEAE5
:102F4000135594EA0C0F08BF95EA0C0F3FF43BAF02
:102F500094EA0C0F0AD150EA01347FF434AF95EAB9
:102F60000C0F7FF425AF104619462CE795EA0C0F9D
:102F700006D152EA03353FF4FDAE1046194622E76A
:102F800050EA410618BF52EA43067FF4C5AE50EA44
:102F900041047FF40DAF52EA43057FF4EBAE12E734
:102FA0004FF0FF3C06E000BF4FF0010C02E000BF15
:102FB0004FF0010C4DF804CD4FEA410C7FEA6C5CF8
:102FC0004FEA430C18BF7FEA6C5C1BD001B050EA9B
:102FD000410C0CBF52EA430C91EA030F02BF90EA86
:102FE000020F0020704710F1000F91EA030F58BF45
:102FF000994208BF90422CBFD8176FEAE37040F0A7
:10300000010070474FEA410C7FEA6C5C02D150EA44
:10301000013C07D14FEA430C7FEA6C5CD6D152EAFF
:10302000033CD3D05DF8040B704700BF84461046C4
:1030300062468C461946634600E000BF01B5FFF7C3
:10304000B7FF002848BF10F1000F01BD4DF808ED93
:10305000FFF7F4FF0CBF012000205DF808FB00BF64
:103060004DF808EDFFF7EAFF34BF012000205DF8BE
:1030700008FB00BF4DF808EDFFF7E0FF94BF01200B
:1030800000205DF808FB00BF4DF808EDFFF7CEFF0C
:1030900094BF012000205DF808FB00BF4DF808ED4B
:1030A000FFF7C4FF34BF012000205DF808FB00BF1C
:1030B0004FEA4102B2F1E04324BFB3F5001CDCF15A
:1030C000FE5C0DD901F0004C4FEAC0024CEA507092
:1030D000B2F1004F40EB830008BF20F001007047C1
:1030E00011F0804F21D113F13872BCBF01F00040C4
:1030F000704741F480114FEA5252C2F11802C2F1F6
:10310000200C10FA0CF320FA02F018BF40F0010076
:103110004FEAC1234FEAD32303FA0CFC40EA0C0028
:1031200023FA02F34FEA4303CCE77FEA625307D165
:1031300050EA01331EBF4FF0FE4040F4400070479C
:1031400001F0004040F0FE4040F40000704700BF36
:1031500080F0004002E000BF81F0004142001FBF4C
:103160005FEA410392EA030F7FEA226C7FEA236C55
:103170006AD04FEA1262D2EB1363C1BFD21841404A
:1031800048404140B8BF5B42192B88BF704710F0E0
:10319000004F40F4000020F07F4018BF404211F083
:1031A000004F41F4000121F07F4118BF494292EAEB
:1031B000030F3FD0A2F1010241FA03FC10EB0C0017
:1031C000C3F1200301FA03F100F0004302D54942A4
:1031D00060EB4000B0F5000F13D3B0F1807F06D351
:1031E00040084FEA310102F10102FE2A51D2B1F149
:1031F000004F40EBC25008BF20F0010040EA03003E
:103200007047490040EB000010F4000FA2F10102EA
:10321000EDD1B0FA80FCACF1080CB2EB0C0200FA74
:103220000CF0AABF00EBC25052421843BCBFD040C2
:103230001843704792F0000F81F4000106BF80F43C
:1032400000000132013BB5E74FEA41037FEA226CFF
:1032500018BF7FEA236C21D092EA030F04D092F0CA
:10326000000F08BF0846704790EA010F1CBF0020FE
:10327000704712F07F4F04D1400028BF40F000405B
:10328000704712F100723CBF00F50000704700F07B
:10329000004343F0FE4040F4000070477FEA2262A2
:1032A00016BF08467FEA23630146420206BF5FEA73
:1032B000412390EA010F40F4800070474FF0000373
:1032C00004E000BF10F0004348BF40425FEA000C3A
:1032D00008BF704743F0964301464FF000001CE0E2
:1032E00050EA010208BF70474FF000030AE000BF38
:1032F00050EA010208BF704711F0004302D5404276
:1033000061EB41015FEA010C02BF844601460020E7
:1033100043F0B64308BFA3F18053A3F50003BCFA02
:103320008CF2083AA3EBC25310DB01FA02FC6344AF
:1033300000FA02FCC2F12002BCF1004F20FA02F2B6
:1033400043EB020008BF20F00100704702F12002A9
:1033500001FA02FCC2F1200250EA4C0021FA02F20A
:1033600043EB020008BF20EADC7070474FF0FF0C0F
:103370001CEAD0521EBF1CEAD15392EA0C0F93EA0A
:103380000C0F6FD01A4480EA010C400218BF5FEAAC
:1033900041211ED04FF0006343EA501043EA51111F
:1033A000A0FB01310CF00040B1F5000F3EBF490019
:1033B00041EAD3715B0040EA010062F17F02FD2A1D
:1033C0001DD8B3F1004F40EBC25008BF20F0010000
:1033D000704790F0000F0CF0004C08BF49024CEA17
:1033E000502040EA51207F3AC2BFD2F1FF0340EAA9
:1033F000C250704740F400004FF00003013A5DDC1A
:1034000012F1190FDCBF00F000407047C2F100025A
:10341000410021FA02F1C2F1200200FA02FC5FEA47
:10342000310040F1000053EA4C0308BF20EADC7091
:10343000704792F0000F00F0004C02BF400010F403
:10344000000F013AF9D040EA0C0093F0000F01F0B0
:10345000004C02BF490011F4000F013BF9D041EAD2
:103460000C018FE70CEAD15392EA0C0F18BF93EAD4
:103470000C0F0AD030F0004C18BF31F0004CD8D1FE
:1034800080EA010000F00040704790F0000F17BF85
:1034900090F0004F084691F0000F91F0004F14D0CB
:1034A00092EA0C0F01D142020FD193EA0C0F03D123
:1034B0004B0218BF084608D180EA010000F0004026
:1034C00040F0FE4040F40000704740F0FE4040F401
:1034D000400070474FF0FF0C1CEAD0521EBF1CEAA0
:1034E000D15392EA0C0F93EA0C0F69D0A2EB0302BE
:1034F00080EA010C49024FEA402037D04FF0805358
:1035000043EA111143EA10130CF000408B4238BF1C
:103510005B0042F17D024FF4000C8B4224BF5B1A2A
:1035200040EA0C00B3EB510F24BFA3EB510340EA78
:103530005C00B3EB910F24BFA3EB910340EA9C0026
:10354000B3EBD10F24BFA3EBD10340EADC001B0196
:1035500018BF5FEA1C1CE0D1FD2A3FF650AF8B423A
:1035600040EBC25008BF20F0010070470CF0004C47
:103570004CEA50207F32C2BFD2F1FF0340EAC25072
:10358000704740F400004FF00003013A37E792F033
:10359000000F00F0004C02BF400010F4000F013A91
:1035A000F9D040EA0C0093F0000F01F0004C02BF8C
:1035B000490011F4000F013BF9D041EA0C0195E7F5
:1035C0000CEAD15392EA0C0F08D142027FF47DAF8E
:1035D00093EA0C0F7FF470AF084676E793EA0C0F7E
:1035E00004D14B023FF44CAF08466EE730F0004C7C
:1035F00018BF31F0004CCAD130F000427FF45CAF0C
:1036000031F000437FF43CAF5FE700BF4FF0FF3C79
:1036100006E000BF4FF0010C02E000BF4FF0010CCC
:103620004DF804CD4FEA40024FEA41037FEA226C95
:1036300018BF7FEA236C11D001B052EA530C18BFB7
:1036400090EA010F58BFB2EB030088BFC81738BF1C
:103650006FEAE17018BF40F0010070477FEA226C0A
:1036600002D15FEA402C05D17FEA236CE4D15FEA06
:10367000412CE1D05DF8040B704700BF844608463A
:103680006146FFE70FB5FFF7C9FF002848BF10F1FB
:10369000000F0FBD4DF808EDFFF7F4FF0CBF012040
:1036A00000205DF808FB00BF4DF808EDFFF7EAFFCA
:1036B00034BF012000205DF808FB00BF4DF808ED85
:1036C000FFF7E0FF94BF012000205DF808FB00BF7A
:1036D0004DF808EDFFF7D2FF94BF012000205DF800
:1036E00008FB00BF4DF808EDFFF7C8FF34BF01200D
:1036F00000205DF808FB00BF42000ED2B2F1FE4F81
:103700000BD34FF09E03B3EB126209D44FEA0023B0
:1037100043F0004323FA02F070474FF00000704777
:1037200012F1610F01D1420202D14FF0FF30704718
:103730004FF00000704700BF40F23043C2F2000378
:103740001868704700000000000000000000000042
:10375000000000000000000000000000000000E089
:10376000E0E0E0E0404040400000E0E0E000000039
:10377000000000000000E7E7E7E7424242000000E7
:103780000000000000000000000000000000000039
:10379000000840084010801080FFE0108010802159
:1037A000002100FFE0210021004200420000000053
:1037B0000000000000000000000000000008003FC2
:1037C000006B80C980C880E80078003C001F000FB3
:1037D000000B808980C980EB007E0008000000009B
:1037E00000000000000000000000000000000000D9
:1037F000003C0800660800E71000E71000E7200022
:10380000E74000664F003C998000B9C00139C00113
:1038100039C00239C0021980040F00000000000006
:103820000000000000000000000000000000000098
:10383000000003C004E00C600C600E400F801F1EEF
:10384000278C6388E1D0E0E0F0F17F7E3E1C000031
:10385000000000000000000000000000E0E0E0E0E8
:103860004040400000000000000000000000000098
:10387000000000041830306060E0E0E0E0E0E0606C
:1038800060303018040000000000806030301818EC
:103890001C1C1C1C1C1C1818303060800000000010
:1038A000003838D6FE106C6C0000000000000000EC
:1038B0000000000000000000000000000000000008
:1038C00004000400040004000400FFE004000400FD
:1038D00004000400040000000000000000000000DC
:1038E00000000000000000000000000000000000D8
:1038F00000C0E0E020408000000000000000000068
:10390000000000000000FC000000000000000000BB
:10391000000000000000000000000000000000E0C7
:10392000E0E00000000000000000000408080810AB
:1039300010102020204040408000000000000000C7
:103940000000000000001C00220063006380E38090
:10395000E380E380E380E380E38063006300220090
:103960001C0000000000000000000000000000003B
:103970000878F838383838383838383838FE0000A1
:1039800000000000000000000000001E007F004753
:1039900080838003800300030006000C00080010F1
:1039A000403FC07F80FF800000000000000000005A
:1039B0000000000000000000003E007F00CF000774
:1039C0000006000C001F000F80078003800380C3E7
:1039D00000E6007C00000000000000000000000085
:1039E000000000000000000300030007000F0017A4
:1039F000001700270047008700FF80FF80070007AF
:103A000000070000000000000000000000000000AF
:103A100000000000001F803F803F00400078007ED3
:103A200000FF000780018000800080E080F1007EC0
:103A30000000000000000000000000000000000086
:103A400000000003800E00380030007000FE00E728
:103A500000E380E380E380E380638073001E000066
:103A60000000000000000000000000000000000056
:103A7000007F807F807F00C1008100020002000281
:103A80000004000400080008000800100000000006
:103A90000000000000000000000000000000003EE8
:103AA000007300E180E180F1807F003E003F00670D
:103AB00080C380C380C38067003E00000000000018
:103AC000000000000000000000000000003C006753
:103AD00000E300E380E380E380E38073803F00073E
:103AE0000006000E003800E00000000000000000AA
:103AF0000000000000000000000000E0E0E0000026
:103B00000000E0E0E0000000000000000000000015
:103B10000000E0E0E000000000C0E0E020408000A5
:103B20000000000000000000000000000000000095
:103B30002001C00E007000800070000E0001C00067
:103B40002000000000000000000000000000000055
:103B50000000000000000000000000000000000065
:103B600000FFC000000000FFC000000000000000D7
:103B70000000000000000000000000000000000045
:103B80000000000000000000000000800070000E37
:103B90000001C0002001C00E007000800000000085
:103BA0000000000000000000000000000000000015
:103BB0000000003E00C700E380E3800380070004AC
:103BC0000008000800000000001C001C001C000091
:103BD00000000000000000000000000000000000E5
:103BE000000000000001FC00060600180180300003
:103BF0008020DCC043BC4043384087384087384091
:103C00008E38408E70808E71008EF200477C20408E
:103C100000402000801001800C060003F800000026
:103C200000000000000001800180038003C005C087
:103C300004E008E008E008701FF010382038603C0D
:103C4000F87E0000000000000000000000000000FE
:103C500000000000FFC038E038703870387038E07D
:103C60003FC038F038783838383838383870FFE0A6
:103C70000000000000000000000000000000000044
:103C800000000FC83C3870187018E008E000E00031
:103C9000E000E000E000700070083C300FC0000061
:103CA0000000000000000000000000000000000014
:103CB000FFC038F038383838381C381C381C381CED
:103CC000381C381C383838383870FFC00000000005
:103CD0000000000000000000000000000000FFE005
:103CE00038603820392039003B003F003B00390064
:103CF0003900381038103830FFE0000000000000B4
:103D0000000000000000000000000000FFF038305C
:103D100038103890388039803F803880388038803B
:103D2000380038003800FE000000000000000000ED
:103D3000000000000000000000000FC83878701874
:103D40007018E008E000E000E000E0FEE0387038C5
:103D5000703838380FE0000000000000000000005C
:103D60000000000000000000FE7F381C381C381CDA
:103D7000381C381C3FFC381C381C381C381C381CBC
:103D8000381CFE7F00000000000000000000000062
:103D90000000FE383838383838383838383838FE87
:103DA000000000000000000000000000000FE00321
:103DB000800380038003800380038003800380E30B
:103DC00080E380C38043003E00000000000000004C
:103DD0000000000000000000000000FE3E3818381F
:103DE000203840388039003F003B803BC039C03824
:103DF000E038703838FE7E0000000000000000004F
:103E0000000000000000000000FE0038003800380C
:103E100000380038003800380038003808381838C2
:103E2000183830FFF0000000000000000000000023
:103E30000000000000000000000000FC07E03C075C
:103E4000803C07802E0B802E0B802F138027138041
:103E500027338023A38023A38023C38021C3802111
:103E60008380F88FE00000000000000000000000E8
:103E70000000000000000000000000007C3E3C0844
:103E80002E0827082708238821C820E820E8207862
:103E9000203820182018F80800000000000000005A
:103EA000000000000000000000000FC038707038F3
:103EB0007038E01CE01CE01CE01CE01CE01C7038CA
:103EC000703838700FC000000000000000000000D3
:103ED0000000000000000000FFC03870383838389B
:103EE0003838383838703FC038003800380038006B
:103EF0003800FE000000000000000000000000008C
:103F00000000000000000FC0387070387018E01C0E
:103F1000E01CE01CE01CE01CE01C703870383870BD
:103F20000FC00780038003C000F8000000000000FD
:103F300000000000FFE0387038383838383838383A
:103F400038703FE039C038E038E038703838FE1E4D
:103F50000000000000000000000000000000000061
:103F600000003C807380E180E080F08078003E00BB
:103F70001F00078083C081C0C1C0E3809F00000094
:103F80000000000000000000000000000000000031
:103F9000FFF88708870807000700070007000700E9
:103FA000070007000700070007001FC0000000000F
:103FB0000000000000000000000000000000FE3EC5
:103FC00038083808380838083808380838083808F1
:103FD0003808380818101C3007C000000000000026
:103FE000000000000000000000000000FE3E380C51
:103FF00038081C101C100E100E200E200740074021
:104000000380038003800100000000000000000026
:104010000000000000000000000000000000F9FCAB
:1040200070707020783820383840383C401C5C4034
:104030001C5C801C8E800E8E800E8E800707000711
:10404000070007030002020000000000000000005B
:10405000000000000000000000000000000000FE62
:104060007E38181C101C200E4007800700038003B8
:10407000C005C008E010703078F8FC0000000000B7
:1040800000000000000000000000000000FC7C7048
:1040900010381038201C401C400E800F000700070D
:1040A000000700070007001FC0000000000000001C
:1040B00000000000000000000000007FF070E061E0
:1040C000C041C00380070007000E000E001C083826
:1040D0001838187038FFF8000000000000000000D9
:1040E0000000000000F0C0C0C0C0C0C0C0C0C0C060
:1040F000C0C0C0C0C0C0F000000000008040404010
:104100002020201010100808080400000000000003
:10411000000000F03030303030303030303030306F
:1041200030303030F00000000000000000000800D7
:1041300014001400220041004100808000000000B3
:10414000000000000000000000000000000000006F
:10415000000000000000000000000000000000005F
:10416000000000000000000000000000000000004F
:10417000000000000000000000000000000000003F
:10418000FFE000000000C060200000000000000010
:10419000000000000000000000000000000000001F
:1041A0000000000000000000003E00C700E700E73C
:1041B000001F0037006700E700EF00738000000079
:1041C000000000000000000000000000000000F0FF
:1041D0000070007000700077007B8071C071C0714A
:1041E000C071C071C0718073804F0000000000007A
:1041F000000000000000000000000000001E7767C3
:10420000E0E0E0E0E0713E0000000000000000009F
:104210000000000007800380038003803B807780DC
:10422000E380E380E380E380E380E38077C03B00CA
:10423000000000000000000000000000000000007E
:1042400000003C66E7E7FFE0E0E1723C00000000B0
:1042500000000000001E777670F87070707070704B
:104260007070F80000000000000000000000000076
:1042700000000000000000003F806600E700E7004B
:10428000E70066003C004000FF00FF807F808080E8
:1042900081007E0000000000000000000000F0002F
:1042A000700070007000778079C071C071C071C0FB
:1042B00071C071C071C071C0F9E000000000000061
:1042C000000000000000000070707000F07070705E
:1042D0007070707070F80000000000000000001C9A
:1042E0001C1C003C1C1C1C1C1C1C1C1C1C1CDCDC8A
:1042F00078000000000000000000F0007000700076
:10430000700073C071807100720074007E007700CD
:10431000738071C0FBE0000000000000000000009E
:1043200000000000F07070707070707070707070CD
:1043300070F8000000000000000000000000000015
:10434000000000000000000000000000000000F776
:104350009E0079E70071C70071C70071C70071C77F
:104360000071C70071C70071C700FBEF800000003B
:10437000000000000000000000000000000000003D
:10438000000000000000000000000000F78079C07D
:1043900071C071C071C071C071C071C071C0F9E0ED
:1043A000000000000000000000000000000000000D
:1043B000000000000000000000003E0077006300E5
:1043C000E380E380E380E380630077003E00000049
:1043D00000000000000000000000000000000000DD
:1043E0000000000000000000F7007B8071C071C079
:1043F00071C071C071C071C07B80770070007000A7
:104400007000F80000000000000000000000000044
:104410000000000000001C8073806380E380E38064
:10442000E380E380E38077803B8003800380038028
:1044300007C000000000000000000000F77B717062
:104440007070707070F80000000000000000000044
:1044500000000074CCC4E0F87C1C8CCCB8000000D8
:1044600000000000000010103070FC707070707060
:104470007070723C000000000000000000000000AE
:10448000000000000000000000F3C071C071C071A6
:10449000C071C071C071C071C073C03DE000000048
:1044A000000000000000000000000000000000000C
:1044B00000000000000000F9E070C0388038801D66
:1044C000001D000E000E000E0004000000000000A1
:1044D00000000000000000000000000000000000DC
:1044E0000000000000FBEE71C471C83AE83AE83AF7
:1044F000E81C701C701C3008200000000000000048
:1045000000000000000000000000000000000000AB
:10451000000000FBC071003A003C001C000E000FC0
:104520000017002380F7C00000000000000000001A
:10453000000000000000000000000000000000007B
:1045400000F9C07080388039001D001E001E000E6A
:10455000000C0004000800E800E800700000000003
:10456000000000000000007F4E4E1C1C38387173A4
:10457000FF000000000000000000183060603030D4
:1045800030608060303030606060301800000000C3
:10459000008080808080808080808080808080809B
:1045A0008080808000000000C0603030606060303B
:1045B000083060606030303060C0000000000000F3
:1045C00000000000000000000000000000000000EB
:1045D0000070208E2081C00000000000000000005C
:1045E0000000000000000000001DC01DC01DC00034
:1045F00000FFE038603820392039003B003F003BA5
:104600000039003900381038103830FFE000000061
:104610000000000000000000000000777777003CF9
:1046200066E7E7FFE0E0E1723C0000000000000008
:104630000000000000000F90387070306010E00043
:10464000E000FF80E000E000E000700070103860E3
:104650000F800000000000000000000000000000CB
:10466000000000003E66E2E0F8E0E0E0623C0000AE
:10467000000000EEEEEE00FE3838383838383838B2
:1046800038383838FE000000000000000000EEEE70
:10469000EE007838383838383838387C0000000078
:1046A0000000000000000000000180018003800382
:1046B000C005C004E008E008E008701FF0103820D2
:1046C00038603CF87E0000000000000000000000A0
:1046D00000000000000000FFF038303810381038BB
:1046E0000038003FC03870383838383838383838F3
:1046F00070FFC0000000000000000000000000008B
:104700000000000000FFC038E038703870387038A2
:10471000E03FC038F038783838383838383870FFEB
:10472000E0000000000000000000000000000000A9
:10473000000000FFF03830381038103800380038EA
:1047400000380038003800380038003800FE00001B
:104750000000000000000000000000000000000059
:10476000001FFC0470047004700470047004700472
:104770007008700870087010702070FFFCE01CC09A
:104780000C8004800400000000000000000000FF16
:10479000E038603820392039003B003F003B0039C9
:1047A000003900381038103830FFE00000000000F9
:1047B00000000000000000000000000000000000F9
:1047C0000071FC70E870B8E4713804710004710085
:1047D00002720003FE000777000E73801C71C01C7C
:1047E00071C03870E07870F0F1FC780000000000D3
:1047F00000000000000000000000000000000000B9
:1048000000005E00670043804380038007001E00B5
:10481000038001C001C001C001C0C3803F0000008F
:104820000000000000000000000000000000000088
:10483000FE7F381C381C381C383C385C389C391CCE
:104840003A1C3C1C381C381C381CFE7F0000000041
:104850000000000000000C300C3007E00000FE7F7C
:10486000381C381C381C383C385C389C391C3A1CC5
:104870003C1C381C381C381CFE7F00000000000067
:10488000000000000000000000000000FE1C382EA8
:10489000384E3840388038803F8039C038E038E0C2
:1048A000387038383838FE1E000000000000000064
:1048B000000000000000000000000FFF021C021CAE
:1048C000021C021C021C021C021C021C021C041CF6
:1048D000E41CE81C707F00000000000000000000E5
:1048E000000000000000000000000000FC07E03CA9
:1048F00007803C07802E0B802E0B802F1380271300
:104900008027338023A38023A38023C38021C380F7
:10491000218380F88FE0000000000000000000000C
:1049200000000000000000000000000000FE7F38D2
:104930001C381C381C381C381C3FFC381C381C38F0
:104940001C381C381C381CFE7F00000000000000D2
:1049500000000000000000000000000FC038707070
:10496000387038E01CE01CE01CE01CE01CE01C700F
:1049700038703838700FC0000000000000000000E0
:10498000000000000000000000FFFF381C381C3849
:104990001C381C381C381C381C381C381C381C3877
:1049A0001C381CFE7F00000000000000000000001A
:1049B00000000000000000FFC03870383838383878
:1049C00038383838703FC038003800380038003880
:1049D00000FE0000000000000000000000000000D9
:1049E00000000000000FC83C3870187018E008E0A4
:1049F00000E000E000E000E000700070083C300FD4
:104A0000C0000000000000000000000000000000E6
:104A1000000000FFF8870887080700070007000765
:104A2000000700070007000700070007001FC0007D
:104A30000000000000000000000000000000000076
:104A400000FE3E380C1C081C100E100E200720071C
:104A50004003C0038001801D001D000E0000000007
:104A60000000000000000000000000000000000046
:104A700000000007F00001C00001C0001FFC007131
:104A8000C700E1C380E1C380E1C380E1C38071C797
:104A9000001FFC0001C00001C00007F00000000082
:104AA0000000000000000000000000000000000006
:104AB00000000000FE7E38181C101C200E400780ED
:104AC0000700038003C005C008E010703078F8FCD0
:104AD00000000000000000000000000000000000D6
:104AE0000000FE7F381C381C381C381C381C381C51
:104AF000381C381C381C381C381C381CFFFF0007B9
:104B000000030001000100000000000000000000A0
:104B1000FC7E3838383838383838383838383878CB
:104B20001FB8003800380038003800FE00000000D0
:104B30000000000000000000000000000000000075
:104B40000000FEFEFE383838383838383838383803
:104B500038383838383838383838383838383838D5
:104B6000383838383838383838FFFFFC0000000053
:104B70000000000000000000000000000000000035
:104B800000000000000000FEFEFE383838383838DB
:104B90003838383838383838383838383838383895
:104BA0003838383838383838383838383838FFFFF7
:104BB000FE00000E000006000002000002000000DF
:104BC0000000000000000000FF00DC009C009C00D2
:104BD0001C001C001FE01C381C1C1C1C1C1C1C1C6A
:104BE0001C387FE000000000000000000000000012
:104BF00000000000000000000000FE03F83800E0A4
:104C00003800E03800E03800E03800E03FC0E0382D
:104C100070E03838E03838E03838E03838E038705C
:104C2000E0FFC3F8000000000000000000000000EA
:104C30000000000000000000000000FE0038003806
:104C4000003800380038003FC038703838383838FD
:104C50003838383870FFC000000000000000000045
:104C60000000000000000000009F00E1C0C0E080E4
:104C700060007000701FF000700070007000E08035
:104C8000E061C01F00000000000000000000000004
:104C90000000000000000000000000FE07E0381CDB
:104CA0003838381C38381C38700E38700E3FF00E0B
:104CB00038700E38700E38700E38381C38381C3882
:104CC0001C38FE07E00000000000000000000000AB
:104CD0000000000000000000000000000FFE1C3873
:104CE00038383838383838381C380FF807380E3824
:104CF0000E381C383838F0FE0000000000000000BC
:104D000000000000000000000000000000000000A3
:104D100000003E00C700E700E7001F003700670003
:104D2000E700EF00738000000000000000000000BA
:104D300000000000000000801F003E0060004000F6
:104D40009E00B700E300E380E380E380E38063003C
:104D500077003E000000000000000000000000009E
:104D60000000000000000000000000000000FF0044
:104D70007380738073007E00738071C071C071C0D6
:104D8000FF800000000000000000000000000000A4
:104D9000000000000000000000000000FF807180A3
:104DA0007080700070007000700070007000F8007B
:104DB00000000000000000000000000000000000F3
:104DC000000000000000000000003FC013801380BE
:104DD000138013801380238023804380FFC0C0C0D2
:104DE0008040804000000000000000000000000043
:104DF0003C66E7E7FFE0E0E1723C000000000000F5
:104E0000000000000000000000000000000000673B
:104E1000CCD396D3960BA00FE01BB03BB8739C731A
:104E20009CE7CE0000000000000000000000000031
:104E300000000000007C4E4E0C180C0E0E8E7C0004
:104E40000000000000000000000000000000000062
:104E500000000000FBC073807380778077807B80C8
:104E60007B8073807380FBC00000000000000000A6
:104E700000000000000000000000318031801F00B1
:104E80000000FBC073807380778077807B807B809D
:104E900073807380FBC00000000000000000000071
:104EA0000000000000000000000000000000000002
:104EB000F8C07160726072007C007700738073804C
:104EC00071C0F8E0000000000000000000000000D9
:104ED00000000000000000000000000000001FF0C3
:104EE00008E008E008E008E008E008E0C8E0C8E002
:104EF00071F0000000000000000000000000000051
:104F0000000000000000000000000000F03C787885
:104F100078785CB85CB84F384F3846384638E47C0F
:104F20000000000000000000000000000000000081
:104F300000000000000000000000FBC073807380D0
:104F400073807F807380738073807380FBC00000E8
:104F50000000000000000000000000000000000051
:104F600000000000000000003E0077006300E380C6
:104F7000E380E380E380630077003E0000000000F0
:104F80000000000000000000000000000000000021
:104F9000000000000000FFC0738073807380738086
:104FA0007380738073807380FBC00000000000007A
:104FB00000000000000000000000000000000000F1
:104FC00000000000F7007B8071C071C071C071C02B
:104FD00071C071C07B807700700070007000F800B5
:104FE000000000000000000000001E7767E0E0E025
:104FF000E0E0713E00000000000000000000000042
:10500000000000000000000000FF809C809C801CCD
:10501000001C001C001C001C001C003E00000000C6
:105020000000000000000000000000000000000080
:1050300000000000000000F9C07080388039001DB9
:10504000001E001E000E000C0004000800E800E82E
:10505000007000000000000000000000000F0007CA
:1050600000070007003FE07770E738E738E738E7E8
:1050700038E738E73877703FE00700070007000F90
:1050800080000000000000000000000000000000A0
:10509000000000FBC071003A003C001C000E000F35
:1050A0000017002380F7C00000000000000000008F
:1050B00000000000000000000000000000000000F0
:1050C00000FBC07380738073807380738073807300
:1050D000807380FFC000C00040004000000000005E
:1050E000000000000000000000000000000000F9C7
:1050F000E071C071C071C073C03DC001C001C0018A
:10510000C003E000000000000000000000000000FC
:10511000000000000000000000000000000000008F
:105120000000000000FBEF8071C70071C70071C76D
:105130000071C70071C70071C70071C70071C70057
:10514000FFFF8000000000000000000000000000E1
:10515000000000000000000000000000000000004F
:1051600000000000000000000000FBEF8071C7009D
:1051700071C70071C70071C70071C70071C70071A6
:10518000C70071C700FFFF800001800000800000A1
:10519000800000000000000000000000000000008F
:1051A00000000000000000FE00DC009C001C001F4E
:1051B000E01C701C701C701C703FE00000000000C0
:1051C00000000000000000000000000000000000DF
:1051D0000000000000F81F700E700E700E7F8E71C0
:1051E000CE71CE71CE71CEFF9F0000000000000096
:1051F00000000000000000000000000000000000AF
:10520000000000F8007000700070007F8071C071B5
:10521000C071C071C0FF80000000000000000000ED
:10522000000000000000000000F8CC8E0E3E0E0EC4
:105230000E8C78000000000000000000000000005C
:105240000000000000000000F8F871DC718C738E23
:105250007F8E738E738E718C71DCF8F80000000005
:10526000000000000000000000000000000000003E
:105270000000000000003FE071C071C071C039C083
:105280001FC039C039C071C0F3E000000000000049
:1052900000000000030000000300170008002E00BB
:1052A0000B004500090073001200A1001000E60089
:1052B0000300140106002B010600420107005901FA
:1052C0000B00700103009E010600B5010300CC0134
:1052D0000600E3010900FA01070028020A003F0264
:1052E00009006D0209009B020900C9020900F702CA
:1052F0000900250309005303090081030300AF03DC
:105300000300C6030B00DD030A000B040B00390485
:1053100009006704130095040F00DA040D00080566
:105320000D0036050E0064050C0092050C00C0054A
:105330000F00EE0510001C0607004A060B00610670
:105340000F008F060D00BD061300EB060F0030079F
:105350000E005E070D008C070E00BA070F00E8076D
:105360000A0016080D0044080F0072080F00A0087C
:105370001400CE080F0013090E0041090D006F093B
:1053800004009D090600B4090400CB090900E209E4
:105390000B00100A03003E0A0900550A0A00830A9E
:1053A0000800B10A0A00C80A0800F60A08000D0B36
:1053B0000900240B0B00520B0500800B0600970B15
:1053C0000B00AE0B0500DC0B1100F30B0B00380CCF
:1053D0000900660C0A00940C0A00C20C0800F00CCC
:1053E0000600070D07001E0D0B00350D0B00630DA9
:1053F0000F00910D0A00BF0D0A00ED0D08001B0EF5
:105400000500320E0100490E0500600E0B00770EFC
:105410000A0000000A0000000A0000000A00000064
:105420000A0000000A0000000A0000000A00000054
:105430000A0000000A0000000A0000000A00000044
:105440000A0000000A0000000A0000000A00000034
:105450000A0000000A0000000A0000000A00000024
:105460000A0000000A0000000A0000000A00000014
:105470000A0000000A0000000A0000000A00000004
:105480000A0000000A0000000A0000000A000000F4
:105490000A0000000A0000000A0000000A000000E4
:1054A0000A0000000A0000000A0000000A000000D4
:1054B0000A0000000C00A50E0A0000000C00EA0E15
:1054C0000A0000000A0000000A0000000A000000B4
:1054D00007002F0F0A0000000A0000000A00000069
:1054E0000A0000000A0000000A0000000A00000094
:1054F0000A0000000800D30E0A0000000700180F81
:105500000A0000000A0000000A0000000A00000073
:105510000700460F0F005D0F0D008B0F0D00B90F38
:105520000C00E70F0E0015100C0043101500711051
:105530000A00B6101000E410100012110F00401104
:1055400010006E1113009C111000E1110E000F12DB
:1055500010003D120D006B120D0099120D00C712C4
:105560000F00F512110023130F006813100096139B
:105570000F00C4131700F213170037140E007C1429
:105580001500AA140D00EF140C001D1517004B1583
:105590000F0090150900BE150900EC150A001A1637
:1055A000090048160A0076160800A4160F00BB165C
:1055B0000700E9160A0000170A002E170B005C17F7
:1055C0000C008A170E00B8170A00E6170900141815
:1055D0000A0042180A00701808009E180900B51841
:1055E0000A00E3180D0011190A003F190A006D198D
:1055F0000B009B191100C91911000E1A0C00531A47
:105600001000811A0A00AF1A0700DD1A0F00F41A01
:105610000B00221B0000501B1720FF0294520008B1
:1056200044370008C1CEC1C5D0203500493A00003A
:10563000733A0000636F733A00000000713A000093
:10564000F3ED3A0073717274000000004300000033
:10565000185600080100000000000000F4020020BD
:105660005C030020C40300200000000000000000D4
:10567000000000000000000000000000000000002A
:105680000000000000000000000000004C56000870
:10569000000000000000000000000000000000000A
:1056A00000000000000000000000000000000000FA
:1056B00000000000000000000000000000000000EA
:1056C00000000000000000000000000000000000DA
:1056D00000000000000000000000000000000000CA
:1056E00000000000000000000000000000000000BA
:1056F00000000000000000000000000000000000AA
:1057000001000000000000000E33CDAB34126DE646
:10571000ECDE05000B0000000000000000000000AF
:105720000000000000000000000000000000000079
:105730000000000000000000000000000000000069
:105740000000000000000000000000000000000059
:105750000000000000000000000000000000000049
:045A800008000020FA
:0400000508000000EF
:00000001FF
